:100000000C9434000C9451000C9451000C94510049
:100010000C9451000C9451000C9451000C9451001C
:100020000C9451000C9475000C9451000C945100E8
:100030000C9451000C9451000C9451000C945100FC
:100040000C9451000C9451000C9451000C945100EC
:100050000C9451000C9451000C9451000C945100DC
:100060000C9451000C94510011241FBECFEFD8E026
:10007000DEBFCDBF11E0A0E0B1E0EEE1F7E002C0ED
:1000800005900D92A031B107D9F721E0A0E1B1E0D0
:1000900001C01D92A831B207E1F70E9486000C94BE
:1000A0008D030C94000097B121E030E001C0220FD5
:1000B0008A95EAF72095922397B988B1282328B921
:1000C000089590917C00907F892B80937C00809193
:1000D0007A00806480937A0080917A0086FDFCCF5C
:1000E000809178009091790008951F920F920FB639
:1000F0000F9211248F93809117018F5F80931701C6
:100100008F910F900FBE0F901F901895559A569A89
:10011000259A81E090E00E94530082E090E00E94E6
:10012000530090E080E00E94530083E090E00E9442
:10013000530057985F9A80E480937C0087E880930F
:100140007A008091B10087608093B1008091700047
:1001500081608093700078942D9A81E00E94610004
:100160007C01909316018093150182E00E9461004A
:100170008C01909314018093130180E00E94610030
:10018000EC01909312018093110183E00E946100C1
:1001900020910C0130910D012E153F0508F0EFC0A4
:1001A000F0920D01E0920C012091080130910901BB
:1001B0002017310708F0F0C01093090100930801DF
:1001C00020910401309105012C173D0708F0F1C082
:1001D000D0930501C09304012091000130910101E9
:1001E0002817390708F0F2C09093010180930001AD
:1001F0004F99B3CF2D9884B5836084BD85B5826057
:1002000085BD809180008B6180938000809181000A
:1002100081608093810084B5806284BD84B58F7EC7
:1002200084BD84B5806884BD84B58F7B84BD809196
:100230008000806880938000809180008F7B809315
:100240008000809180008062809380008091800097
:100250008F7E80938000EBB1F0E080818F7D808382
:10026000EBB1F0E080818F7D8083DFE500910E01AE
:1002700010910F01E0900C01F0900D0181E00E94BF
:100280006100DC01AE19BF0924E630E00E9455038D
:1002900098012E193F09032E000C440B550B0E94A8
:1002A0003603C22F209315013093160100910A01E5
:1002B00010910B01E0900801F090090182E00E948A
:1002C0006100DC01AE19BF0924E630E00E9455034D
:1002D00098012E193F09032E000C440B550B0E9468
:1002E0003603F22E2093130130931401009106017E
:1002F00010910701C0900401D090050180E00E9498
:100300006100DC01AC19BD0924E630E00E94550310
:1003100098012C193D09032E000C440B550B0E942B
:100320003603309312012093110183E00E94610093
:100330006C2F6F19062E000C770B880B990B0E94FF
:100340003D0220E030E040EF51E40E94A1020E9413
:10035000050260931001615A09F045C0EBB1F0E06D
:1003600080818F7D8083809110019D2F981B09F0E3
:1003700043C0EBB1F0E080818F7B808377CF209109
:100380000E0130910F01E216F30608F00DCFF09246
:100390000F01E0920E0108CF20910A0130910B016C
:1003A0000217130708F00CCF10930B0100930A01FA
:1003B00007CF2091060130910701C217D30708F03B
:1003C0000BCFD0930701C093060106CF2091020105
:1003D000309103018217930708F00ACF909303012D
:1003E0008093020105CF6F3F29F4EBB1F0E08081EB
:1003F0008062B8CF68BDB7CF9F3F29F4EBB1F0E082
:1004000080818064BACF97BD31CF0E940C0268947E
:10041000B1110C949B0208950E94800288F09F57AE
:1004200098F0B92F9927B751B0F0E1F0660F771F18
:10043000881F991F1AF0BA95C9F714C0B13091F00E
:100440000E949A02B1E008950C949A02672F782FC7
:100450008827B85F39F0B93FCCF3869577956795D3
:10046000B395D9F73EF490958095709561957F4F3F
:100470008F4F9F4F0895E89409C097FB3EF49095E5
:100480008095709561957F4F8F4F9F4F9923A9F06D
:10049000F92F96E9BB279395F695879577956795FC
:1004A000B795F111F8CFFAF4BB0F11F460FF1BC040
:1004B0006F5F7F4F8F4F9F4F16C0882311F096E9D3
:1004C00011C0772321F09EE8872F762F05C0662381
:1004D00071F096E8862F70E060E02AF09A95660F3A
:1004E000771F881FDAF7880F9695879597F90895F3
:1004F00057FD9058440F551F59F05F3F71F04795D5
:10050000880F97FB991F61F09F3F79F087950895B9
:10051000121613061406551FF2CF4695F1DF08C0D8
:10052000161617061806991FF1CF869571056105F5
:1005300008940895E894BB2766277727CB0197F99D
:1005400008950E94B4020C9425030E94170338F00A
:100550000E941E0320F0952311F00C940E030C94BE
:10056000140311240C949B020E94780270F3959F4F
:10057000C1F3950F50E0551F629FF001729FBB279A
:10058000F00DB11D639FAA27F00DB11DAA1F649F36
:100590006627B00DA11D661F829F2227B00DA11DE9
:1005A000621F739FB00DA11D621F839FA00D611D6F
:1005B000221F749F3327A00D611D231F849F600D90
:1005C000211D822F762F6A2F11249F5750409AF0B9
:1005D000F1F088234AF0EE0FFF1FBB1F661F771F45
:1005E000881F91505040A9F79E3F510580F00C9410
:1005F0000E030C949B025F3FE4F3983ED4F3869580
:1006000077956795B795F795E7959F5FC1F7FE2BAF
:10061000880F911D9695879597F9089597F99F678B
:1006200080E870E060E008959FEF80EC089500247A
:100630000A941616170618060906089500240A9447
:1006400012161306140605060895092E0394000CCD
:1006500011F4882352F0BB0F40F4BF2B11F460FF5C
:1006600004C06F5F7F4F8F4F9F4F0895052E97FBFC
:100670001EF400940E944D0357FD07D00E945C03B6
:1006800007FC03D04EF40C944D03509540953095E3
:1006900021953F4F4F4F5F4F0895909580957095EE
:1006A00061957F4F8F4F9F4F08950E947E03B7FF44
:1006B0000895821B930B0895A1E21A2EAA1BBB1B5F
:1006C000FD010DC0AA1FBB1FEE1FFF1FA217B3071E
:1006D000E407F50720F0A21BB30BE40BF50B661F34
:1006E000771F881F991F1A9469F7609570958095F8
:1006F00090959B01AC01BD01CF010895A29FB0016F
:10070000B39FC001A39F700D811D1124911DB29F45
:0E071000700D811D1124911D0895F894FFCFE6
:10071E0000040000000400000004000000040000BB
:00000001FF
