:100000000C948C010C945D040C94A9010C94A9012E
:100010000C94A9010C94A9010C94A9010C94A901B8
:100020000C94A9010C947E050C94A9010C94A901CF
:100030000C94A9010C94A9010C94A9010C94A90198
:100040000C94A9010C94A9010C94A9010C94A90188
:100050000C94A9010C94A9010C94A9010C94A90178
:100060000C94A9010C94A901AE2000B0C800104066
:10007000813FA1A6A81FA4D300D5F0D922DA02DBC4
:10008000208D140000000000000000002F00000080
:10009000000700070000147F147F1400242A7F2A21
:1000A00012006264081323003649552250000005EF
:1000B00003000000001C224100000041221C00003F
:1000C00014083E08140008083E0808000000A0605C
:1000D0000000080808080800006060000000201008
:1000E000080402003E5149453E0000427F400000A6
:1000F0004261514946002141454B31001814127F9D
:1001000010002745454539003C4A494930000171F6
:1001100009050300364949493600064949291E00A8
:100120000036360000000056360000000814224158
:1001300000001414141414000041221408000201D9
:1001400051090600324959513E007C1211127C00BF
:100150007F49494936003E41414122007F414122C9
:100160001C007F49494941007F09090901003E41BE
:1001700049497A007F0808087F0000417F4100005C
:100180002040413F01007F08142241007F40404051
:1001900040007F020C027F007F0408107F003E4178
:1001A00041413E007F09090906003E4151215E00A0
:1001B0007F091929460046494949310001017F015B
:1001C00001003F4040403F001F2040201F003F40B3
:1001D00038403F00631408146300070870080700E4
:1001E000615149454300007F41410000552A552A8D
:1001F00055000041417F000004020102040040401C
:100200004040400000010204000020545454780093
:100210007F4844443800384444442000384444482B
:100220007F00385454541800087E0901020018A4B5
:10023000A4A47C007F080404780000447D400000F2
:100240004080847D00007F102844000000417F40F2
:1002500000007C04180478007C080404780038440A
:1002600044443800FC242424180018242418FC00DA
:100270007C0804040800485454542000043F4440BF
:1002800020003C4040207C001C2040201C003C40C2
:1002900030403C004428102844001CA0A0A07C0052
:1002A0004464544C4400000877410000000063009F
:1002B00000000041770800000804080804003A40E4
:1002C00040207A003D4040403D0021545454790084
:1002D0007D1211127D003944444439003D424242AE
:1002E0003D000205020000007E01495573007C10AC
:1002F00010081C003048204830005C6202625CBC80
:100300005F9C60A4618462B6639664B0659F66B5C5
:10031000678968A969FFFF0011241FBECFEFD8E0ED
:10032000DEBFCDBF11E0A0E0B1E0ECE5F6E102C038
:1003300005900D92AC31B107D9F723E0ACE1B1E003
:1003400001C01D92A635B207E1F70E9494050C94F6
:100350002C0B0C94000097B121E030E001C0220F7B
:100360008A95EAF72095922397B988B1282328B96E
:1003700008958093BB0084E88093BC008091BC000A
:1003800087FFFCCF9091B900987F983129F098327F
:1003900019F081E0903409F480E00895EF92FF9223
:1003A0000F931F93CF93DF937C018B0184EA80939B
:1003B000BC008091BC0087FFFCCF88E70E94B90198
:1003C00080E40E94B901E7010E0D1F1D89910E9472
:1003D000B901C017D107D1F784E98093BC00DF9140
:1003E000CF911F910F91FF90EF900895EF92FF92A0
:1003F0000F931F93CF93DF93182FE92E062F84EAD4
:100400008093BC008091BC0087FFFCCF88E70E94EE
:10041000B90180E00E94B901F12EC12FDE2D899132
:100420000E94B9018C2F8F198017C8F384E980933B
:10043000BC00DF91CF911F910F91FF90EF90089535
:10044000CF93DF9300D000D0CDB7DEB7E4E5F3E083
:10045000808361836055698391E29A838B838FE700
:100460008C8364E0CE0101960E94F6010F900F90FC
:100470000F900F90DF91CF910895982F990F890FCA
:10048000880F813820F4643010F40C942002089511
:100490004F925F926F927F929F92AF92BF92CF9254
:1004A000DF92EF92FF920F931F93CF93DF93CDB71D
:1004B000DEB72C970FB6F894DEBF0FBECDBF8930E4
:1004C00009F4E9C00CF09CC0883009F4BCC09090DD
:1004D000540339E7391508F4FAC080320CF4F7C038
:1004E0008052682F70E0E0E0F3E0E491E617170631
:1004F00009F00CF426C190910301692D70E092304F
:1005000009F021C19B01245F3F4F2138310508F0DC
:10051000DEC0F6E08F9F30011124DE011196CD017F
:1005200010E000E093012D573F4F3901EE24E39492
:10053000F12CFC0111821082F301E00FF11FE49114
:1005400030E020E0AE2EB12CA501022E02C0559560
:1005500047950A94E2F740FF1CC02901440C551C42
:100560006701042C02C0CC0CDD1C0A94E2F7FC01EC
:10057000408151814C295D29F2013196670102C009
:10058000CC0CDD1CEA95E2F74C295D29FC01518376
:1005900040832F5F3F4F28303105B1F60F5F1F4F6B
:1005A00002960630110529F6E0915503F0E03196E8
:1005B000F695FE2FEE27F795E795CB018E0F9F1F3F
:1005C0008C5A9E4FE60FF71FBF016C527F4FAD0153
:1005D000445F5F4F2C9111963C9111971296FC014C
:1005E00030833183FB012083218302966E5F7F4F2E
:1005F000A417B50779F78CE0890D8093540367C081
:100600008A3009F47AC08D3009F061CF60915503CA
:10061000643008F05CC080E02C960FB6F894DEBF22
:100620000FBECDBFDF91CF911F910F91FF90EF9043
:10063000DF90CF90BF90AF909F907F906F905F9032
:100640004F900C942002109103018091540360910B
:100650005503811B0E943D0280E20E944802809166
:10066000540360915503811B2C960FB6F894DEBF9E
:100670000FBECDBFDF91CF911F910F91FF90EF90F3
:10068000DF90CF90BF90AF909F907F906F905F90E2
:100690004F900C943D02809154039091030124E00B
:1006A000929FA001112460915503FA01E80FF11DFA
:1006B00025E130E0241B350BE217F30720F4990FF6
:1006C000990F890FD1CF8EE7643008F4A5CF2C960F
:1006D0000FB6F894DEBF0FBECDBFDF91CF911F9153
:1006E0000F91FF90EF90DF90CF90BF90AF909F90D1
:1006F0007F906F905F904F900895609155036330A5
:1007000030F780910301680F80915403ADCFF90158
:10071000E150FD4FE491E052FF0B6E177F0719F493
:10072000FC018491E8CE4F5F242F30E0220F331F6D
:10073000C90180509D4FFC0154915F3F41F78FEFFD
:10074000DACE40E0F1CFF6E08F9FC0011124209176
:10075000550340E8249F90011124620F731F30E07D
:1007600020E08D579F4FFC01E20FF31FE491D90168
:10077000A60FB71FAC5ABE4FEC932F5F3F4F2630EA
:10078000310589F786E038CFCF93DF93EC0189916B
:10079000811103C0DF91CF9108950E944802F7CFE5
:1007A00087B18F7C87B988B1806388B9E9EBF0E0C5
:1007B00080818C7F808388E48093B8000895909135
:1007C0007C00907F892B80937C0080917A008064EC
:1007D00080937A0080917A0086FDFCCF809178002A
:1007E0009091790008950F931F93CF93DF9304E5C1
:1007F00011E0C0E0D0E8F8018D2F11928A95E9F759
:100800006C2F80E00E94200260E870E0C8010E9426
:10081000CE01CF5F00581F4FC43069F760E080E021
:10082000DF91CF911F910F910C942002CF93DF9312
:1008300060E086E60E942002809102011F928F9361
:1008400084E091E09F938F93C6E3D1E0DF93CF9351
:100850000E945408CE010E94C40362E08AE50E940F
:100860002002809101011F928F9388E091E09F9375
:100870008F93DF93CF930E945408CE010E94C4034C
:1008800060E080E00E9420028DB79EB70C960FB604
:10089000F8949EBF0FBE8DBF60E072E084E591E0EA
:1008A000DF91CF910C94CE018FE39CE90197F1F792
:1008B00000C000004B9BF8CF08951F920F920FB617
:1008C0000F9211240F931F932F933F934F935F9396
:1008D0006F937F938F939F93AF93BF93CF93EF9338
:1008E000FF93C091B200809153019C2F981B892FD8
:1008F00093EC980F973290F410924F0110925001A0
:10090000109251011092520110924E0110924A0120
:1009100010924B0110924C0110924D0196EE980FDF
:10092000933150F540914F01509150016091510128
:1009300070915201440F551F661F771F40934F015E
:1009400050935001609351017093520140914F01B7
:10095000509150016091510170915201416040935A
:100960004F01509350016093510170935201909147
:100970004E019F5F90934E0188508131C8F4809161
:100980004F0190915001A0915101B0915201880FF7
:10099000991FAA1FBB1F80934F0190935001A093F2
:1009A0005101B093520180914E018F5F80934E01AF
:1009B00080914E01803209F052C0E898809149013F
:1009C0008F5F809349011092B20081E080934801CB
:1009D00080E0909148019130C1F540914F015091D4
:1009E0005001609151017091520140914F0150911D
:1009F0005001609151017091520140914F0150910D
:100A000050016091510170915201452F562F672F6F
:100A10007727842F00914F011091500120915101AF
:100A20003091520140274F3F69F4803509F462C08C
:100A3000A0F5883009F44AC040F5882309F440C085
:100A40000E9416041092480180E0B89B02C08F5F9C
:100A5000B89A833009F0BDCFE09A81E08DBBC09396
:100A60005301FF91EF91CF91BF91AF919F918F91E2
:100A70007F916F915F914F913F912F911F910F91B6
:100A80000F900FBE0F901F901895803149F1883458
:100A9000B9F680910201865F1CC0803939F140F4BB
:100AA000803889F0883861F680910201815011C048
:100AB000883C91F0803D21F6809101018A5013C05D
:100AC00090930001BDCF10920001BACF8091020136
:100AD0008F5F80930201B4CF809102018A50F9CFD9
:100AE000809101018F5F80930101AACF8091010164
:100AF0008150F9CF80910101865FF5CF1F920F924F
:100B00000FB60F9211248F93809147018F5F8093CE
:100B10004701809146018F5F809346018F910F902E
:100B20000FBE0F901F901895CF93DF93CDB7DEB710
:100B30006C970FB6F894DEBF0FBECDBF559A569A8C
:100B4000219A229A259A81E090E00E94AB0182E0EE
:100B500090E00E94AB0190E080E00E94AB0183E056
:100B600090E00E94AB0153985B9A1092B00087E02E
:100B70008093B1008091700081608093700010922A
:100B8000B20083E08093690081E08DBB78940E947D
:100B9000D0030E94D003E8E6F0E0DE0111969E014A
:100BA000245E3F4FCD0144914D933196A217B30778
:100BB000D1F72FEA2C8F6CE10E94F6010E94F3031B
:100BC0000E94F30382E08093030160E080E00E94D2
:100BD00020028CE091E00E94C40362E080E00E9469
:100BE000200284E191E00E94C4030E94160480E484
:100BF00080937C0087E880937A0084B5836084BD0D
:100C000085B5826085BD809180008B618093800076
:100C10008091810081608093810084B5806284BD71
:100C200084B58F7E84BD84B5806884BD84B58F7B98
:100C300084BD8091800080688093800080918000D6
:100C40008F7B809380008091800080628093800001
:100C5000809180008F7E8093800018BC17BC10921A
:100C600089001092880010928B0010928A002FEF5A
:100C70008FE097E2215080409040E1F700C00000F3
:100C80002D9A81E00E94DF03909335018093340117
:100C9000909333018093320182E00E94DF039093AE
:100CA0002F0180932E0190932D0180932C0180E0E1
:100CB0000E94DF03909329018093280190932701DC
:100CC0008093260183E00E94DF03909323018093A9
:100CD000220190932101809320011092470128E581
:100CE000A22E22E0B22E36E9732E8091470186397A
:100CF00008F4F9C080E9C82EDD24D39494E6B92E17
:100D0000D0928900C0928800B7BC00913201109146
:100D10003301E0903401F090350181E00E94DF035F
:100D2000DC01AE19BF0924E630E00E941C089801DE
:100D30002E193F09032E000C440B550B0E94FD0792
:100D40007901309331012093300100912C011091F1
:100D50002D0160902E0170902F0182E00E94DF0330
:100D6000DC01A619B70924E630E00E941C089801AE
:100D700026193709032E000C440B550B0E94FD0762
:100D800030932B0120932A0123E3E216F10408F0AB
:100D9000B7CF109289001092880017BC4B99FECFF4
:100DA0000E9454042D9880910001882309F421C1E8
:100DB0000091320110913301E0903401F09035013F
:100DC00081E00E94DF03DC01AE19BF0924E630E0B8
:100DD0000E941C0898012E193F09032E000C440B99
:100DE000550B0E94FD0729013093310120933001FA
:100DF00000912C0110912D01E0902E01F0902F0117
:100E000082E00E94DF03DC01AE19BF0924E630E076
:100E10000E941C0898012E193F09032E000C440B58
:100E2000550B0E94FD07690130932B0120932A0185
:100E30000091260110912701A0902801B09029016E
:100E400080E00E94DF03DC01AA19BB0924E630E040
:100E50000E941C0898012A193B09032E000C440B20
:100E6000550B0E94FD07309325012093240183E058
:100E70000E94DF03C418D508809102018C9D900167
:100E80008D9D300D112430931F0120931E01809100
:100E90000101820F932F911D181619060CF0A1C0A5
:100EA000863991050CF09FC088BD8091010190E0CA
:100EB00020911E0130911F01821B930B18161906F9
:100EC0000CF093C0863991050CF091C087BD2D9828
:100ED0004B9969CF0E9454048091000191E08927C9
:100EE0008093000160CFB0928900A092880077BC07
:100EF00081E00E94DF036C01909331018093300107
:100F000082E00E94DF037C0190932B0180932A01F1
:100F100080E00E94DF038C019093250180932401DF
:100F200083E00E94DF0320913201309133012C15C0
:100F30003D0530F5D0923301C092320120912C0151
:100F400030912D012E153F0538F5F0922D01E092DC
:100F50002C0120912601309127012017310740F5FF
:100F60001093270100932601209120013091210147
:100F70002817390748F59093210180932001B5CEB9
:100F80002091340130913501C216D306B8F6D092C3
:100F90003501C0923401D2CF20912E0130912F0122
:100FA000E216F306B0F6F0922F01E0922E01D1CFB7
:100FB000209128013091290102171307A8F61093F8
:100FC000290100932801D0CF2091220130912301E3
:100FD0008217930708F089CE909323018093220112
:100FE00084CE80E061CF86E95FCF80E06FCF86E975
:100FF0006DCF18BC17BC2D9A6ACF052E97FB1EF437
:1010000000940E94140857FD07D00E94230807FC93
:1010100003D04EF40C9414085095409530952195CA
:101020003F4F4F4F5F4F0895909580957095619514
:101030007F4F8F4F9F4F08950E944508B7FF089537
:10104000821B930B0895A1E21A2EAA1BBB1BFD0164
:101050000DC0AA1FBB1FEE1FFF1FA217B307E40797
:10106000F50720F0A21BB30BE40BF50B661F771FEF
:10107000881F991F1A9469F76095709580959095CF
:101080009B01AC01BD01CF010895A29FB001B39FA8
:10109000C001A39F700D811D1124911DB29F700D81
:1010A000811D1124911D0895AEE0B0E0EAE5F8E05D
:1010B0000C94030B0D891E8986E08C831A830983A7
:1010C0008FEF9FE79E838D83AE01475E5F4F6F89F1
:1010D000788DCE0101960E9477082F813885020F06
:1010E000131FF80110822E96E4E00C941F0BABE066
:1010F000B0E0EDE7F8E00C94F50A7C013B018A01D1
:10110000FC0117821682838181FFC8C1CE0101963E
:101110005C01F7019381F30193FD859193FF819128
:101120003F01882309F453C1853239F493FD859139
:1011300093FF81913F01853229F4B70190E00E942D
:10114000670AE7CF912C212C312CFFE1F31538F001
:101150008B3211F190F4803209F1833229F137FC9E
:101160003CC020ED280F2A3050F536FE20C08AE022
:10117000989E200D1124922E06C08D3291F080335E
:1011800071F7689430F8F30193FD859193FF819195
:101190003F018111DACF21C0689431F8689432F8A8
:1011A000F2CF689433F8EFCF689434F8ECCFEAE0EC
:1011B0002E9E200D1124222E689435F8E4CF8E3215
:1011C00029F436FC04C1689436F8DDCF8C3619F466
:1011D000689437F8D8CF8836B1F2982F9F7D955410
:1011E0009330E0F08336A1F18337C1F1833509F004
:1011F00063C02801F2E04F0E511CF801C080D1807D
:10120000692D70E036FC02C06FEF7FEFC6010E94CF
:10121000510A4C01689437F882010AC00C5F1F4FD5
:10122000FFE3F98388248394912C6501E89437F8CF
:1012300033FE2DC0522C8114910471F5552009F410
:1012400068CFB70180E290E00E94670A5A94F6CF17
:10125000F801808189830E5F1F4FE4CF2801F2E0FF
:101260004F0E511CF801C080D180692D70E036FC12
:1012700002C06FEF7FEFC6010E945C0A4C01820141
:10128000D5CFB70180E290E00E94670A2A94281423
:10129000190409F0B0F7CECFF60137FC859137FE7F
:1012A00081916F01B70190E00E94670A51105A9432
:1012B000F1E08F1A9108BFCF843619F0893609F012
:1012C00077C0F80137FE6BC06081718182819381A4
:1012D0000C5F1F4FF32DFF763F2E97FF09C09095AF
:1012E0008095709561957F4F8F4F9F4F689437F829
:1012F0002AE030E0A5010E94970AC82ECA188C2C5B
:10130000432C36FE0CC0E89440F8C91440F434FE77
:1013100005C032FC03C0F32DFE7E4F2E892C44FE07
:1013200095C0FE01EC0DF11D8081803309F087C06E
:10133000242D297E422E842D8870582E43FC95C082
:1013400040FE8FC09C2C821418F42C0C922C981800
:1013500044FE91C0B70180E390E00E94670A42FE1C
:1013600009C088E790E041FE02C088E590E0B7013F
:101370000E94670AC91408F48AC0CA94D12C9FEF4E
:10138000C91AD90ACA0CDB1CF60182916F01B70198
:1013900090E00E94670AAC14BD04B1F74FCF6081A2
:1013A0007181072E000C880B990B0E5F1F4F92CF97
:1013B000D32CE894D4F82AE030E0853739F1232D96
:1013C000297FD22E8F3601F148F48835A9F0F70134
:1013D000868197812B96E2E10C94110B803749F0BE
:1013E0008837A9F7D4FE02C06894D2F820E130E033
:1013F0000DC06894D4F8F6CF34FE03C0822F866007
:10140000D82E20E132E002C028E030E0F801D7FE1B
:101410000FC060817181828193810C5F1F4FA50194
:101420000E94970AC82ECA183D2CE89437F867CF57
:101430006081718190E080E00E5F1F4FF0CF42FC31
:1014400002C0839478CF8394839475CF842D86785B
:1014500009F471CFF6CFB70180E290E00E94670AED
:1014600083948214C0F3512C73CF522C58188214D9
:1014700008F46ECFF8CF842D867809F47BCF8BE209
:1014800041FE80E247FC8DE2B70190E071CFB701E9
:1014900080E390E00E94670A9A946CCF8FEF9FEFF1
:1014A00099CFFC010590615070400110D8F78095EC
:1014B00090958E0F9F1F0895FC0161507040019020
:1014C0000110D8F7809590958E0F9F1F08950F9368
:1014D0001F93CF93DF93182F092FEB018B8181FD91
:1014E00009C01FEF0FEF812F902FDF91CF911F9138
:1014F0000F91089582FF14C02E813F818C819D81C0
:10150000281739073CF4E881F981CF0101969983C6
:10151000888310838E819F8101969F838E83E3CF82
:10152000E885F985812F0995892BA1F3DACFFA0196
:10153000AA27283051F1203181F1E8946F936E7F12
:101540006E5F7F4F8F4F9F4FAF4FB1E03ED0B4E003
:101550003CD0670F781F891F9A1FA11D680F791F44
:101560008A1F911DA11D6A0F711D811D911DA11D55
:1015700020D009F468943F912AE0269F1124301965
:10158000305D3193DEF6CF010895462F4770405D00
:101590004193B3E00FD0C9F7F6CF462F4F70405DAF
:1015A0004A3318F0495D31FD4052419302D0A9F70A
:1015B000EACFB4E0A6959795879577956795BA9504
:1015C000C9F700976105710508959B01AC010A2ECA
:1015D00006945795479537952795BA95C9F7620FA1
:1015E000731F841F951FA01D08952F923F924F9245
:1015F0005F926F927F928F929F92AF92BF92CF92A3
:10160000DF92EF92FF920F931F93CF93DF93CDB7AB
:10161000DEB7CA1BDB0B0FB6F894DEBF0FBECDBF23
:1016200009942A88398848885F846E847D848C84F4
:101630009B84AA84B984C884DF80EE80FD800C81FD
:101640001B81AA81B981CE0FD11D0FB6F894DEBFE0
:0C1650000FBECDBFED010895F894FFCF50
:10165C0001780A0125326400253364004B70202088
:0C166C0020203D005370656564203D00A7
:00000001FF
