:100000000C948C010C9432040C94A9010C94A90159
:100010000C94A9010C94A9010C94A9010C94A901B8
:100020000C94A9010C94A9010C94A9010C94A901A8
:100030000C94A9010C94A9010C94A9010C94A90198
:100040000C94A9010C94A9010C94A9010C94A90188
:100050000C94A9010C94A9010C94A9010C94A90178
:100060000C94A9010C94A901AE2000B0C800104066
:10007000813FA1A6A81FA4D300D5F0D922DA02DBC4
:10008000208D140000000000000000002F00000080
:10009000000700070000147F147F1400242A7F2A21
:1000A00012006264081323003649552250000005EF
:1000B00003000000001C224100000041221C00003F
:1000C00014083E08140008083E0808000000A0605C
:1000D0000000080808080800006060000000201008
:1000E000080402003E5149453E0000427F400000A6
:1000F0004261514946002141454B31001814127F9D
:1001000010002745454539003C4A494930000171F6
:1001100009050300364949493600064949291E00A8
:100120000036360000000056360000000814224158
:1001300000001414141414000041221408000201D9
:1001400051090600324959513E007C1211127C00BF
:100150007F49494936003E41414122007F414122C9
:100160001C007F49494941007F09090901003E41BE
:1001700049497A007F0808087F0000417F4100005C
:100180002040413F01007F08142241007F40404051
:1001900040007F020C027F007F0408107F003E4178
:1001A00041413E007F09090906003E4151215E00A0
:1001B0007F091929460046494949310001017F015B
:1001C00001003F4040403F001F2040201F003F40B3
:1001D00038403F00631408146300070870080700E4
:1001E000615149454300007F41410000552A552A8D
:1001F00055000041417F000004020102040040401C
:100200004040400000010204000020545454780093
:100210007F4844443800384444442000384444482B
:100220007F00385454541800087E0901020018A4B5
:10023000A4A47C007F080404780000447D400000F2
:100240004080847D00007F102844000000417F40F2
:1002500000007C04180478007C080404780038440A
:1002600044443800FC242424180018242418FC00DA
:100270007C0804040800485454542000043F4440BF
:1002800020003C4040207C001C2040201C003C40C2
:1002900030403C004428102844001CA0A0A07C0052
:1002A0004464544C4400000877410000000063009F
:1002B00000000041770800000804080804003A40E4
:1002C00040207A003D4040403D0021545454790084
:1002D0007D1211127D003944444439003D424242AE
:1002E0003D000205020000007E01495573007C10AC
:1002F00010081C003048204830005C6202625CBC80
:100300005F9C60A4618462B6639664B0659F66B5C5
:10031000678968A969FFFF0011241FBECFEFD8E0ED
:10032000DEBFCDBF11E0A0E0B1E0E4ECF0E102C03F
:1003300005900D92AC31B107D9F723E0ACE1B1E003
:1003400001C01D92AC33B207E1F70E94CC040C94BB
:1003500060080C9400008093BB0084E88093BC008C
:100360008091BC0087FFFCCF9091B900987F9831B5
:1003700029F0983219F081E0903409F480E0089572
:10038000EF92FF920F931F93CF93DF937C018B012A
:1003900084EA8093BC008091BC0087FFFCCF88E793
:1003A0000E94AB0180E40E94AB01E7010E0D1F1D0E
:1003B00089910E94AB01C017D107D1F784E98093DE
:1003C000BC00DF91CF911F910F91FF90EF900895A6
:1003D000EF92FF920F931F93CF93DF93182FE92E85
:1003E000062F84EA8093BC008091BC0087FFFCCF7D
:1003F00088E70E94AB0180E00E94AB01F12EC12F83
:10040000DE2D89910E94AB018C2F8F198017C8F3C4
:1004100084E98093BC00DF91CF911F910F91FF90F1
:10042000EF900895CF93DF9300D000D0CDB7DEB723
:10043000EAE3F3E0808361836055698391E29A8304
:100440008B838FE78C8364E0CE0101960E94E801E4
:100450000F900F900F900F90DF91CF910895982FEC
:10046000990F890F880F813820F4643010F40C94B0
:10047000120208954F925F926F927F929F92AF9275
:10048000BF92CF92DF92EF92FF920F931F93CF9381
:10049000DF93CDB7DEB72C970FB6F894DEBF0FBE53
:1004A000CDBF893009F4E9C00CF09CC0883009F454
:1004B000BCC090903A0339E7391508F4FAC080328D
:1004C0000CF4F7C08052682F70E0E0E0F3E0E491B4
:1004D000E617170609F00CF426C190910201692D68
:1004E00070E0923009F021C19B01245F3F4F213819
:1004F000310508F0DEC0F6E08F9F30011124DE01E7
:100500001196CD0110E000E093012D573F4F3901C6
:10051000EE24E394F12CFC0111821082F301E00F30
:10052000F11FE49130E020E0AE2EB12CA501022EA7
:1005300002C0559547950A94E2F740FF1CC0290177
:10054000440C551C6701042C02C0CC0CDD1C0A9421
:10055000E2F7FC01408151814C295D29F20131967D
:10056000670102C0CC0CDD1CEA95E2F74C295D293D
:10057000FC01518340832F5F3F4F28303105B1F696
:100580000F5F1F4F02960630110529F6E0913B03DD
:10059000F0E03196F695FE2FEE27F795E795CB0123
:1005A0008E0F9F1F865C9E4FE60FF71FBF0166549C
:1005B0007F4FAD01445F5F4F2C9111963C91119795
:1005C0001296FC0130833183FB0120832183029644
:1005D0006E5F7F4FA417B50779F78CE0890D809384
:1005E0003A0367C08A3009F47AC08D3009F061CFD0
:1005F00060913B03643008F05CC080E02C960FB63D
:10060000F894DEBF0FBECDBFDF91CF911F910F9148
:10061000FF90EF90DF90CF90BF90AF909F907F9032
:100620006F905F904F900C94120210910201809194
:100630003A0360913B03811B0E942F0280E20E94DB
:100640003A0280913A0360913B03811B2C960FB6CE
:10065000F894DEBF0FBECDBFDF91CF911F910F91F8
:10066000FF90EF90DF90CF90BF90AF909F907F90E2
:100670006F905F904F900C942F0280913A0390916D
:10068000020124E0929FA001112460913B03FA0132
:10069000E80FF11D25E130E0241B350BE217F307CD
:1006A00020F4990F990F890FD1CF8EE7643008F4A9
:1006B000A5CF2C960FB6F894DEBF0FBECDBFDF914D
:1006C000CF911F910F91FF90EF90DF90CF90BF904F
:1006D000AF909F907F906F905F904F900895609142
:1006E0003B03633030F780910201680F80913A0339
:1006F000ADCFF901E150FD4FE491E052FF0B6E17D1
:100700007F0719F4FC018491E8CE4F5F242F30E07D
:10071000220F331FC90180509D4FFC0154915F3F50
:1007200041F78FEFDACE40E0F1CFF6E08F9FC001C6
:10073000112420913B0340E8249F90011124620F73
:10074000731F30E020E08D579F4FFC01E20FF31F35
:10075000E491D901A60FB71FA65CBE4FEC932F5FA3
:100760003F4F2630310589F786E038CFCF93DF93AE
:10077000EC018991811103C0DF91CF9108950E940E
:100780003A02F7CF87B18F7C87B988B1806388B987
:10079000E9EBF0E080818C7F808388E48093B8006F
:1007A00008950F931F93CF93DF930AE311E0C0E006
:1007B000D0E8F8018D2F11928A95E9F76C2F80E02F
:1007C0000E94120260E870E0C8010E94C001CF5F81
:1007D00000581F4FC43069F760E080E0DF91CF918F
:1007E0001F910F910C941202CF93DF9360E086E685
:1007F0000E941202809101011F928F9383E091E089
:100800009F938F93CEE1D1E0DF93CF930E94880531
:10081000CE010E94B60362E08AE50E941202809136
:1008200000011F928F9387E091E09F938F93DF9356
:10083000CF930E948805CE010E94B60360E080E05D
:100840000E9412028DB79EB70C960FB6F8949EBF09
:100850000FBE8DBF60E072E08AE391E0DF91CF913F
:100860000C94C0011F920F920FB60F9211242F9378
:100870003F934F935F936F937F938F939F93AF9328
:10088000BF932091B20080913401922F981B892F41
:1008900093EC980F973290F4109235011092360134
:1008A00010923701109238011092330110922F01EB
:1008B00010923001109231011092320196EE980F91
:1008C000933150F5409135015091360160913701D7
:1008D00070913801440F551F661F771F40933501F3
:1008E0005093360160933701709338014091350180
:1008F0005091360160913701709138014160409309
:10090000350150933601609337017093380190910F
:1009100033019F5F9093330188508131C8F48091F7
:10092000350190913601A0913701B0913801880FBF
:10093000991FAA1FBB1F8093350190933601A09386
:100940003701B0933801809133018F5F8093330179
:10095000309133013032E9F4E89890912E019F5F95
:1009600090932E0185B1832785B91092B20081E062
:1009700080933901BF91AF919F918F917F916F913A
:100980005F914F913F912F910F900FBE0F901F904D
:10099000189520933401EECFCF93DF93CDB7DEB718
:1009A0006C970FB6F894DEBF0FBECDBF1092B000AB
:1009B00087E08093B1001092B20083E080936900D9
:1009C00081E08DBB78940E94C2030E94C203E8E6D6
:1009D000F0E0DE0111969E01245E3F4FCD0144916F
:1009E0004D9331962A173B07D1F72FEA2C8F6CE1F4
:1009F0000E94E8010E94D1030E94D10382E080930B
:100A0000020160E080E00E9412028BE091E00E940F
:100A1000B60362E080E00E94120283E191E00E944E
:100A2000B6030E94F403259A80E011E09091390109
:100A3000913009F041C08091350190913601A0912B
:100A40003701B09138018091350190913601A09124
:100A50003701B091380140913501509136016091D4
:100A6000370170913801452F562F672F7727842F34
:100A7000C0903501D0903601E0903701F0903801F8
:100A80004C254F3FB1F4803599F160F4803131F15C
:100A90008834B1F1883059F4809100018F5F8093E0
:100AA000000105C0803901F188F4883829F10E94DD
:100AB000F4031092390180E0B89B02C08F5FB89AAE
:100AC000833009F0B3CFE09A1DBBB0CF883CE1F092
:100AD000803D69F7809101018A5003C08091010136
:100AE0008F5F80930101E3CF809101018150F9CFA5
:100AF00080910101865FF5CF809100018150CFCFB9
:100B000080910001865FCBCF809100018A50C7CFD2
:100B1000AEE0B0E0EEE8F5E00C9437080D891E89F0
:100B200086E08C831A8309838FEF9FE79E838D83F2
:100B3000AE01475E5F4F6F89788DCE0101960E94AE
:100B4000AB052F813885020F131FF80110822E96F6
:100B5000E4E00C945308ABE0B0E0E1EBF5E00C947A
:100B600029087C013B018A01FC01178216828381DE
:100B700081FFC8C1CE0101965C01F7019381F301A9
:100B800093FD859193FF81913F01882309F453C11F
:100B9000853239F493FD859193FF81913F01853230
:100BA00029F4B70190E00E949B07E7CF912C212CFC
:100BB000312CFFE1F31538F08B3211F190F48032D3
:100BC00009F1833229F137FC3CC020ED280F2A308F
:100BD00050F536FE20C08AE0989E200D1124922EFA
:100BE00006C08D3291F0803371F7689430F8F301CC
:100BF00093FD859193FF81913F018111DACF21C04F
:100C0000689431F8689432F8F2CF689433F8EFCFF3
:100C1000689434F8ECCFEAE02E9E200D1124222EA9
:100C2000689435F8E4CF8E3229F436FC04C1689418
:100C300036F8DDCF8C3619F4689437F8D8CF88367B
:100C4000B1F2982F9F7D95549330E0F08336A1F157
:100C50008337C1F1833509F063C02801F2E04F0EFC
:100C6000511CF801C080D180692D70E036FC02C0B3
:100C70006FEF7FEFC6010E9485074C01689437F83B
:100C800082010AC00C5F1F4FFFE3F983882483941D
:100C9000912C6501E89437F833FE2DC0522C811455
:100CA000910471F5552009F468CFB70180E290E016
:100CB0000E949B075A94F6CFF801808189830E5FCA
:100CC0001F4FE4CF2801F2E04F0E511CF801C08005
:100CD000D180692D70E036FC02C06FEF7FEFC60156
:100CE0000E9490074C018201D5CFB70180E290E0CD
:100CF0000E949B072A942814190409F0B0F7CECF5C
:100D0000F60137FC859137FE81916F01B70190E0C4
:100D10000E949B0751105A94F1E08F1A9108BFCF9F
:100D2000843619F0893609F077C0F80137FE6BC0B8
:100D300060817181828193810C5F1F4FF32DFF765B
:100D40003F2E97FF09C090958095709561957F4FD4
:100D50008F4F9F4F689437F82AE030E0A5010E943A
:100D6000CB07C82ECA188C2C432C36FE0CC0E89436
:100D700040F8C91440F434FE05C032FC03C0F32D22
:100D8000FE7E4F2E892C44FE95C0FE01EC0DF11D18
:100D90008081803309F087C0242D297E422E842D46
:100DA0008870582E43FC95C040FE8FC09C2C821446
:100DB00018F42C0C922C981844FE91C0B70180E3D3
:100DC00090E00E949B0742FE09C088E790E041FE48
:100DD00002C088E590E0B7010E949B07C91408F49F
:100DE0008AC0CA94D12C9FEFC91AD90ACA0CDB1C3D
:100DF000F60182916F01B70190E00E949B07AC144D
:100E0000BD04B1F74FCF60817181072E000C880BB4
:100E1000990B0E5F1F4F92CFD32CE894D4F82AE0A1
:100E200030E0853739F1232D297FD22E8F3601F11D
:100E300048F48835A9F0F701868197812B96E2E185
:100E40000C944508803749F08837A9F7D4FE02C0D2
:100E50006894D2F820E130E00DC06894D4F8F6CF61
:100E600034FE03C0822F8660D82E20E132E002C01B
:100E700028E030E0F801D7FE0FC0608171818281E7
:100E800093810C5F1F4FA5010E94CB07C82ECA1883
:100E90003D2CE89437F867CF6081718190E080E065
:100EA0000E5F1F4FF0CF42FC02C0839478CF839433
:100EB000839475CF842D867809F471CFF6CFB7016E
:100EC00080E290E00E949B0783948214C0F3512C2F
:100ED00073CF522C5818821408F46ECFF8CF842D9B
:100EE000867809F47BCF8BE241FE80E247FC8DE2FD
:100EF000B70190E071CFB70180E390E00E949B07BB
:100F00009A946CCF8FEF9FEF99CFFC0105906150C1
:100F100070400110D8F7809590958E0F9F1F08950F
:100F2000FC016150704001900110D8F780959095B8
:100F30008E0F9F1F08950F931F93CF93DF93182F4A
:100F4000092FEB018B8181FD09C01FEF0FEF812F6E
:100F5000902FDF91CF911F910F91089582FF14C0C0
:100F60002E813F818C819D81281739073CF4E881CF
:100F7000F981CF0101969983888310838E819F81A7
:100F800001969F838E83E3CFE885F985812F0995AC
:100F9000892BA1F3DACFFA01AA27283051F12031A9
:100FA00081F1E8946F936E7F6E5F7F4F8F4F9F4FFD
:100FB000AF4FB1E03ED0B4E03CD0670F781F891F3F
:100FC0009A1FA11D680F791F8A1F911DA11D6A0F0D
:100FD000711D811D911DA11D20D009F468943F91C0
:100FE0002AE0269F11243019305D3193DEF6CF01BF
:100FF0000895462F4770405D4193B3E00FD0C9F785
:10100000F6CF462F4F70405D4A3318F0495D31FDF1
:101010004052419302D0A9F7EACFB4E0A695979544
:10102000879577956795BA95C9F70097610571051A
:1010300008959B01AC010A2E069457954795379564
:101040002795BA95C9F7620F731F841F951FA01DBE
:1010500008952F923F924F925F926F927F928F925C
:101060009F92AF92BF92CF92DF92EF92FF920F9337
:101070001F93CF93DF93CDB7DEB7CA1BDB0B0FB641
:10108000F894DEBF0FBECDBF09942A8839884888FE
:101090005F846E847D848C849B84AA84B984C88494
:1010A000DF80EE80FD800C811B81AA81B981CE0F8B
:1010B000D11D0FB6F894DEBF0FBECDBFED01089570
:0410C000F894FFCFD2
:1010C400FF0A0125326400253364004B7020202080
:0C10D400203D005370656564203D000065
:00000001FF
