:100000000C9434000C943E000C943E000C943E0082
:100010000C943E000C943E000C943E000C943E0068
:100020000C943E000C943E000C943E000C943E0058
:100030000C943E000C943E000C943E000C943E0048
:100040000C943E000C943E000C943E000C943E0038
:100050000C943E000C943E000C943E000C943E0028
:100060000C943E000C943E0011241FBECFEFD8E04C
:10007000DEBFCDBF0E9440000C9482000C940000B3
:10008000559A569A219A229A84B5836084BD85B583
:10009000826085BD809180008B618093800080911B
:1000A000810081608093810084B5806284BD84B5C5
:1000B0008F7E84BD84B5806884BD84B58F7B84BD0C
:1000C00080918000806880938000809180008F7B89
:1000D0008093800080918000806280938000809176
:1000E00080008F7E8093800028EC80E293E028BD22
:1000F00027BD909389008093880090938B00809314
:080100008A00F5CFF894FFCF4F
:00000001FF
