:100000000C948C010C946E040C94A9010C94A9011D
:100010000C94A9010C94A9010C94A9010C94A901B8
:100020000C94A9010C945D040C94A9010C94A901F1
:100030000C94A9010C94A9010C94A9010C94A90198
:100040000C94A9010C94A9010C94A9010C94A90188
:100050000C94A9010C94A9010C94A9010C94A90178
:100060000C94A9010C94A901AE2000B0C800104066
:10007000813FA1A6A81FA4D300D5F0D922DA02DBC4
:10008000208D140000000000000000002F00000080
:10009000000700070000147F147F1400242A7F2A21
:1000A00012006264081323003649552250000005EF
:1000B00003000000001C224100000041221C00003F
:1000C00014083E08140008083E0808000000A0605C
:1000D0000000080808080800006060000000201008
:1000E000080402003E5149453E0000427F400000A6
:1000F0004261514946002141454B31001814127F9D
:1001000010002745454539003C4A494930000171F6
:1001100009050300364949493600064949291E00A8
:100120000036360000000056360000000814224158
:1001300000001414141414000041221408000201D9
:1001400051090600324959513E007C1211127C00BF
:100150007F49494936003E41414122007F414122C9
:100160001C007F49494941007F09090901003E41BE
:1001700049497A007F0808087F0000417F4100005C
:100180002040413F01007F08142241007F40404051
:1001900040007F020C027F007F0408107F003E4178
:1001A00041413E007F09090906003E4151215E00A0
:1001B0007F091929460046494949310001017F015B
:1001C00001003F4040403F001F2040201F003F40B3
:1001D00038403F00631408146300070870080700E4
:1001E000615149454300007F41410000552A552A8D
:1001F00055000041417F000004020102040040401C
:100200004040400000010204000020545454780093
:100210007F4844443800384444442000384444482B
:100220007F00385454541800087E0901020018A4B5
:10023000A4A47C007F080404780000447D400000F2
:100240004080847D00007F102844000000417F40F2
:1002500000007C04180478007C080404780038440A
:1002600044443800FC242424180018242418FC00DA
:100270007C0804040800485454542000043F4440BF
:1002800020003C4040207C001C2040201C003C40C2
:1002900030403C004428102844001CA0A0A07C0052
:1002A0004464544C4400000877410000000063009F
:1002B00000000041770800000804080804003A40E4
:1002C00040207A003D4040403D0021545454790084
:1002D0007D1211127D003944444439003D424242AE
:1002E0003D000205020000007E01495573007C10AC
:1002F00010081C003048204830005C6202625CBC80
:100300005F9C60A4618462B6639664B0659F66B5C5
:10031000678968A969FFFF0011241FBECFEFD8E0ED
:10032000DEBFCDBF11E0A0E0B1E0EEE5F5E102C037
:1003300005900D92AC31B107D9F723E0ACE1B1E003
:1003400001C01D92A135B207E1F70E9487050C9408
:10035000AD0A0C94000097B121E030E001C0220FFB
:100360008A95EAF72095922397B988B1282328B96E
:1003700008958093BB0084E88093BC008091BC000A
:1003800087FFFCCF9091B900987F983129F098327F
:1003900019F081E0903409F480E00895EF92FF9223
:1003A0000F931F93CF93DF937C018B0184EA80939B
:1003B000BC008091BC0087FFFCCF88E70E94B90198
:1003C00080E40E94B901E7010E0D1F1D89910E9472
:1003D000B901C017D107D1F784E98093BC00DF9140
:1003E000CF911F910F91FF90EF900895EF92FF92A0
:1003F0000F931F93CF93DF93182FE92E062F84EAD4
:100400008093BC008091BC0087FFFCCF88E70E94EE
:10041000B90180E00E94B901F12EC12FDE2D899132
:100420000E94B9018C2F8F198017C8F384E980933B
:10043000BC00DF91CF911F910F91FF90EF90089535
:10044000CF93DF9300D000D0CDB7DEB7EFE4F3E079
:10045000808361836055698391E29A838B838FE700
:100460008C8364E0CE0101960E94F6010F900F90FC
:100470000F900F90DF91CF910895982F990F890FCA
:10048000880F813820F4643010F40C942002089511
:100490004F925F926F927F929F92AF92BF92CF9254
:1004A000DF92EF92FF920F931F93CF93DF93CDB71D
:1004B000DEB72C970FB6F894DEBF0FBECDBF8930E4
:1004C00009F4E9C00CF09CC0883009F4BCC09090DD
:1004D0004F0339E7391508F4FAC080320CF4F7C03D
:1004E0008052682F70E0E0E0F3E0E491E617170631
:1004F00009F00CF426C190910201692D70E0923050
:1005000009F021C19B01245F3F4F2138310508F0DC
:10051000DEC0F6E08F9F30011124DE011196CD017F
:1005200010E000E093012D573F4F3901EE24E39492
:10053000F12CFC0111821082F301E00FF11FE49114
:1005400030E020E0AE2EB12CA501022E02C0559560
:1005500047950A94E2F740FF1CC02901440C551C42
:100560006701042C02C0CC0CDD1C0A94E2F7FC01EC
:10057000408151814C295D29F2013196670102C009
:10058000CC0CDD1CEA95E2F74C295D29FC01518376
:1005900040832F5F3F4F28303105B1F60F5F1F4F6B
:1005A00002960630110529F6E0915003F0E03196ED
:1005B000F695FE2FEE27F795E795CB018E0F9F1F3F
:1005C000815B9E4FE60FF71FBF0161537F4FAD0167
:1005D000445F5F4F2C9111963C9111971296FC014C
:1005E00030833183FB012083218302966E5F7F4F2E
:1005F000A417B50779F78CE0890D80934F0367C086
:100600008A3009F47AC08D3009F061CF60915003CF
:10061000643008F05CC080E02C960FB6F894DEBF22
:100620000FBECDBFDF91CF911F910F91FF90EF9043
:10063000DF90CF90BF90AF909F907F906F905F9032
:100640004F900C9420021091020180914F03609111
:100650005003811B0E943D0280E20E94480280916B
:100660004F0360915003811B2C960FB6F894DEBFA8
:100670000FBECDBFDF91CF911F910F91FF90EF90F3
:10068000DF90CF90BF90AF909F907F906F905F90E2
:100690004F900C943D0280914F039091020124E011
:1006A000929FA001112460915003FA01E80FF11DFF
:1006B00025E130E0241B350BE217F30720F4990FF6
:1006C000990F890FD1CF8EE7643008F4A5CF2C960F
:1006D0000FB6F894DEBF0FBECDBFDF91CF911F9153
:1006E0000F91FF90EF90DF90CF90BF90AF909F90D1
:1006F0007F906F905F904F900895609150036330AA
:1007000030F780910201680F80914F03ADCFF9015E
:10071000E150FD4FE491E052FF0B6E177F0719F493
:10072000FC018491E8CE4F5F242F30E0220F331F6D
:10073000C90180509D4FFC0154915F3F41F78FEFFD
:10074000DACE40E0F1CFF6E08F9FC0011124209176
:10075000500340E8249F90011124620F731F30E082
:1007600020E08D579F4FFC01E20FF31FE491D90168
:10077000A60FB71FA15BBE4FEC932F5F3F4F2630F4
:10078000310589F786E038CFCF93DF93EC0189916B
:10079000811103C0DF91CF9108950E944802F7CFE5
:1007A00087B18F7C87B988B1806388B9E9EBF0E0C5
:1007B00080818C7F808388E48093B8000895909135
:1007C0007C00907F892B80937C0080917A008064EC
:1007D00080937A0080917A0086FDFCCF809178002A
:1007E0009091790008950F931F93CF93DF930FE4B7
:1007F00011E0C0E0D0E8F8018D2F11928A95E9F759
:100800006C2F80E00E94200260E870E0C8010E9426
:10081000CE01CF5F00581F4FC43069F760E080E021
:10082000DF91CF911F910F910C9420028FE39CE9EF
:100830000197F1F700C000004B9BF8CF0895CF93CC
:10084000DF9360E086E60E942002809101011F9202
:100850008F9383E091E09F938F93CEE1D1E0DF937C
:10086000CF930E94D507CE010E94C40362E08AE5BF
:100870000E942002809100011F928F9387E091E0F7
:100880009F938F93DF93CF930E94D507CE010E9451
:10089000C40360E080E00E9420028DB79EB70C96F2
:1008A0000FB6F8949EBF0FBE8DBF60E072E08FE47C
:1008B00091E0DF91CF910C94CE011F920F920FB671
:1008C0000F9211248F9380914E018F5F80934E0180
:1008D0008F910F900FBE0F901F9018951F920F923F
:1008E0000FB60F9211240F931F932F933F934F93A3
:1008F0005F936F937F938F939F93AF93BF93CF93A8
:10090000EF93FF93C091B200809139019C2F981B07
:10091000892F93EC980F973290F410923501109232
:100920003601109237011092380110923401109262
:10093000300110923101109232011092330196EE83
:10094000980F933150F540913501509136016091E7
:10095000370170913801440F551F661F771F409370
:1009600035015093360160933701709338014091FF
:100970003501509136016091370170913801416025
:1009800040933501509336016093370170933801DD
:10099000909134019F5F9093340188508131C8F465
:1009A0008091350190913601A0913701B0913801C5
:1009B000880F991FAA1FBB1F8093350190933601A2
:1009C000A0933701B0933801809134018F5F8093F9
:1009D000340120913401203209F061C0E8989091EF
:1009E0002F019F5F90932F0185B1822785B91092C7
:1009F000B20081E080932E0180E090912E01913031
:100A000009F043C08091350190913601A0913701E2
:100A1000B09138018091350190913601A091370154
:100A2000B091380140913501509136016091370104
:100A300070913801452F562F672F7727842F00910B
:100A4000350110913601209137013091380140274E
:100A50004F3FC1F4803509F44AC068F48031E9F1B0
:100A6000883409F44CC0883059F4809100018F5FBC
:100A70008093000105C08039B1F138F58838D9F18B
:100A80000E941F0410922E0180E0B89B02C08F5F6D
:100A9000B89A833009F0B1CFE09A81E08DBBC09362
:100AA0003901FF91EF91CF91BF91AF919F918F91BC
:100AB0007F916F915F914F913F912F911F910F9176
:100AC0000F900FBE0F901F901895883CE1F0803D6D
:100AD000B9F6809101018A5003C0809101018F5FB6
:100AE00080930101CDCF809101018150F9CF809198
:100AF0000101865FF5CF809100018150B9CF8091CF
:100B00000001865FB5CF809100018A50B1CFCF93AD
:100B1000DF93CDB7DEB76C970FB6F894DEBF0FBE8C
:100B2000CDBF559A569A219A229A259A81E090E053
:100B30000E94AB0182E090E00E94AB0190E080E077
:100B40000E94AB0183E090E00E94AB0153985B9A56
:100B50001092B00087E08093B100809170008160B6
:100B6000809370001092B20083E08093690081E06E
:100B70008DBB78940E94D0030E94D003E8E6F0E099
:100B8000DE0111969E01245E3F4FCD0144914D93AD
:100B900031962A173B07D1F72FEA2C8F6CE10E9480
:100BA000F6010E94F3030E94F30382E080930201A6
:100BB00060E080E00E9420028BE091E00E94C4038C
:100BC00062E080E00E94200283E191E00E94C40381
:100BD0000E941F0480E480937C0087E880937A0061
:100BE00084B5836084BD85B5826085BD80918000B9
:100BF0008B6180938000809181008160809381006F
:100C000084B5806284BD84B58F7E84BD84B58068E0
:100C100084BD84B58F7B84BD809180008068809383
:100C20008000809180008F7B809380008091800085
:100C3000806280938000809180008F7E809380000E
:100C400018BC17BC109289001092880010928B007B
:100C500010928A002FEF8FE097E221508040904061
:100C6000E1F700C000002D9A81E00E94DF0390931D
:100C70004D0180934C0190934B0180934A0182E097
:100C80000E94DF03909348018093470190934601AF
:100C90008093450180E00E94DF039093430180939D
:100CA0004201909341018093400183E00E94DF0361
:100CB00090933E0180933D0190933C0180933B01D2
:100CC00010924E0180E2C82E83E0D82E98EC992E27
:100CD00080914E01883C08F489C0109289001092DE
:100CE000880017BC4B99FECF0E9416042D980091E6
:100CF0004A0110914B01E0904C01F0904D0181E0D0
:100D00000E94DF03DC01AE19BF0924E630E00E9437
:100D10009D0798012E193F09032E000C440B550B1B
:100D20000E947E07122F20934901E0904501F09028
:100D30004601C0904701D090480182E00E94DF0345
:100D4000DC01AC19BD0924E630E00E949D07970143
:100D50002C193D09032E000C440B550B0E947E07F5
:100D6000022F20934401E0904001F0904101C09097
:100D70004201D090430180E00E94DF03DC01AC1906
:100D8000BD0924E630E00E949D0797012C193D091A
:100D9000032E000C440B550B0E947E0720933F014D
:100DA00083E00E94DF03101B80910101189F102D2A
:100DB000112410933A0180910001180F18BD809101
:100DC000000190913A01891B87BD4B9990CF0E94F9
:100DD00016044B9987C02D982FEF83EC99E0215092
:100DE00080409040E1F700C0000081CFD0928900A0
:100DF000C092880097BC81E00E94DF035C01809371
:100E0000490182E00E94DF037C018093440180E07D
:100E10000E94DF038C0180933F0183E00E94DF0387
:100E2000BB2440914A0150914B014A155B0548F59E
:100E3000B0924B01A0924A01FF244091450150918C
:100E400046014E155F0548F5F0924601E0924501D6
:100E5000112740914001509141014017510748F539
:100E60001093410100934001992720913B0130915B
:100E70003C012817390748F590933C0180933B01CA
:100E800027CF40914C0150914D01A416B506A0F614
:100E9000B0924D01A0924C01CFCF409147015091AB
:100EA0004801E416F506A0F6F0924801E0924701E9
:100EB000CFCF409142015091430104171507A0F68E
:100EC0001093430100934201CFCF20913D01309117
:100ED0003E018217930708F0FBCE90933E0180936A
:100EE0003D01F6CE2D9A18BC17BC109289001092C5
:100EF000880010928B0010928A006BCF052E97FB12
:100F00001EF400940E94950757FD07D00E94A40785
:100F100007FC03D04EF40C949507509540953095FE
:100F200021953F4F4F4F5F4F089590958095709555
:100F300061957F4F8F4F9F4F08950E94C607B7FF5F
:100F40000895821B930B0895A1E21A2EAA1BBB1BC6
:100F5000FD010DC0AA1FBB1FEE1FFF1FA217B30785
:100F6000E407F50720F0A21BB30BE40BF50B661F9B
:100F7000771F881F991F1A9469F76095709580955F
:100F800090959B01AC01BD01CF010895A29FB001D6
:100F9000B39FC001A39F700D811D1124911DB29FAD
:100FA000700D811D1124911D0895AEE0B0E0EBEDB0
:100FB000F7E00C94840A0D891E8986E08C831A83DD
:100FC00009838FEF9FE79E838D83AE01475E5F4F5E
:100FD0006F89788DCE0101960E94F8072F813885A0
:100FE000020F131FF80110822E96E4E00C94A00A61
:100FF000ABE0B0E0EEEFF7E00C94760A7C013B0149
:101000008A01FC0117821682838181FFC8C1CE014B
:1010100001965C01F7019381F30193FD859193FFA4
:1010200081913F01882309F453C1853239F493FD3E
:10103000859193FF81913F01853229F4B70190E0BA
:101040000E94E809E7CF912C212C312CFFE1F31508
:1010500038F08B3211F190F4803209F1833229F1AA
:1010600037FC3CC020ED280F2A3050F536FE20C05A
:101070008AE0989E200D1124922E06C08D3291F0A8
:10108000803371F7689430F8F30193FD859193FFF5
:1010900081913F018111DACF21C0689431F86894C1
:1010A00032F8F2CF689433F8EFCF689434F8ECCF8D
:1010B000EAE02E9E200D1124222E689435F8E4CF0C
:1010C0008E3229F436FC04C1689436F8DDCF8C36B4
:1010D00019F4689437F8D8CF8836B1F2982F9F7DED
:1010E00095549330E0F08336A1F18337C1F1833515
:1010F00009F063C02801F2E04F0E511CF801C080D6
:10110000D180692D70E036FC02C06FEF7FEFC60121
:101110000E94D2094C01689437F882010AC00C5F22
:101120001F4FFFE3F98388248394912C6501E89491
:1011300037F833FE2DC0522C8114910471F55520DF
:1011400009F468CFB70180E290E00E94E8095A9460
:10115000F6CFF801808189830E5F1F4FE4CF28010D
:10116000F2E04F0E511CF801C080D180692D70E073
:1011700036FC02C06FEF7FEFC6010E94DD094C0113
:101180008201D5CFB70180E290E00E94E8092A945D
:101190002814190409F0B0F7CECFF60137FC859179
:1011A00037FE81916F01B70190E00E94E80951106C
:1011B0005A94F1E08F1A9108BFCF843619F089361E
:1011C00009F077C0F80137FE6BC0608171818281C0
:1011D00093810C5F1F4FF32DFF763F2E97FF09C0C1
:1011E00090958095709561957F4F8F4F9F4F689434
:1011F00037F82AE030E0A5010E94180AC82ECA1864
:101200008C2C432C36FE0CC0E89440F8C91440F4F2
:1012100034FE05C032FC03C0F32DFE7E4F2E892C18
:1012200044FE95C0FE01EC0DF11D8081803309F074
:1012300087C0242D297E422E842D8870582E43FC91
:1012400095C040FE8FC09C2C821418F42C0C922C5C
:10125000981844FE91C0B70180E390E00E94E8092D
:1012600042FE09C088E790E041FE02C088E590E0B8
:10127000B7010E94E809C91408F48AC0CA94D12CA5
:101280009FEFC91AD90ACA0CDB1CF60182916F01C3
:10129000B70190E00E94E809AC14BD04B1F74FCF4C
:1012A00060817181072E000C880B990B0E5F1F4F18
:1012B00092CFD32CE894D4F82AE030E0853739F186
:1012C000232D297FD22E8F3601F148F48835A9F0DD
:1012D000F701868197812B96E2E10C94920A803780
:1012E00049F08837A9F7D4FE02C06894D2F820E10B
:1012F00030E00DC06894D4F8F6CF34FE03C0822FDE
:101300008660D82E20E132E002C028E030E0F8010B
:10131000D7FE0FC060817181828193810C5F1F4F66
:10132000A5010E94180AC82ECA183D2CE89437F867
:1013300067CF6081718190E080E00E5F1F4FF0CF3A
:1013400042FC02C0839478CF8394839475CF842D1C
:10135000867809F471CFF6CFB70180E290E00E9461
:10136000E80983948214C0F3512C73CF522C58187F
:10137000821408F46ECFF8CF842D867809F47BCFE1
:101380008BE241FE80E247FC8DE2B70190E071CF35
:10139000B70180E390E00E94E8099A946CCF8FEF48
:1013A0009FEF99CFFC010590615070400110D8F774
:1013B000809590958E0F9F1F0895FC01615070409D
:1013C00001900110D8F7809590958E0F9F1F08957A
:1013D0000F931F93CF93DF93182F092FEB018B816E
:1013E00081FD09C01FEF0FEF812F902FDF91CF916B
:1013F0001F910F91089582FF14C02E813F818C812F
:101400009D81281739073CF4E881F981CF010196C5
:101410009983888310838E819F8101969F838E8319
:10142000E3CFE885F985812F0995892BA1F3DACFE0
:10143000FA01AA27283051F1203181F1E8946F9305
:101440006E7F6E5F7F4F8F4F9F4FAF4FB1E03ED0AB
:10145000B4E03CD0670F781F891F9A1FA11D680F49
:10146000791F8A1F911DA11D6A0F711D811D911D7C
:10147000A11D20D009F468943F912AE0269F1124F1
:101480003019305D3193DEF6CF010895462F477055
:10149000405D4193B3E00FD0C9F7F6CF462F4F70B0
:1014A000405D4A3318F0495D31FD4052419302D00E
:1014B000A9F7EACFB4E0A6959795879577956795B4
:1014C000BA95C9F700976105710508959B01AC01B4
:1014D0000A2E06945795479537952795BA95C9F7DB
:1014E000620F731F841F951FA01D08952F923F92B6
:1014F0004F925F926F927F928F929F92AF92BF9224
:10150000CF92DF92EF92FF920F931F93CF93DF93CF
:10151000CDB7DEB7CA1BDB0B0FB6F894DEBF0FBE2C
:10152000CDBF09942A88398848885F846E847D8479
:101530008C849B84AA84B984C884DF80EE80FD807B
:101540000C811B81AA81B981CE0FD11D0FB6F894F1
:0E155000DEBF0FBECDBFED010895F894FFCFB2
:10155E00FF0A0125326400253364004B70202020E1
:0C156E00203D005370656564203D0000C6
:00000001FF
