:100000000C9434000C9451000C9451000C94510049
:100010000C9451000C9451000C9451000C9451001C
:100020000C9451000C9451000C9451000C9451000C
:100030000C9451000C94D4000C9451000C94510079
:100040000C9451000C9451000C94A6000C947C006C
:100050000C9451000C9451000C9451000C945100DC
:100060000C9451000C94510011241FBECFEFD8E026
:10007000DEBFCDBF11E0A0E0B1E0E2EDF8E002C0EC
:1000800005900D92A033B107D9F721E0A0E3B1E0CC
:1000900001C01D92AE3BB207E1F70E9421010C9412
:1000A00067040C9400009091BD019F5F9F732091A5
:1000B000BC012917E1F3E92FF0E0E458FE4F8083FB
:1000C0009093BD018091C10080628093C10008952A
:1000D00090917C00907F892B80937C0080917A00A6
:1000E000806480937A0080917A0086FDFCCF8091B5
:1000F00078009091790008951F920F920FB60F9299
:1001000011248F939F93EF93FF939091BD01809162
:10011000BC019817A9F0E091BC01EF5FEF73E09389
:10012000BC01F0E0E458FE4F80818093C600FF914F
:10013000EF919F918F910F900FBE0F901F90189588
:100140008091C1008F7D8093C100F1CF1F920F92EB
:100150000FB60F9211242F938F939F93EF93FF93DA
:100160008091C0009091C600E0917B01EF5FEF733A
:1001700020917A012E17B1F08C71E0937B01F0E0B1
:10018000E65CFE4F908390913901892B8093390171
:10019000FF91EF919F918F912F910F900FBE0F9034
:1001A0001F90189582E0EFCF1F920F920FB60F921B
:1001B00011242F933F934F935F936F937F938F936C
:1001C0009F93AF93BF93CF93DF93EF93FF9380E021
:1001D0000E946800909338018093370181E00E946B
:1001E0006800909336018093350182E00E94680098
:1001F000909334018093330183E00E9468009093D0
:10020000320180933101C0E0D1E08991811116C0A3
:1002100081E080933001FF91EF91DF91CF91BF9109
:10022000AF919F918F917F916F915F914F913F918E
:100230002F910F900FBE0F901F9018950E945300A2
:10024000E4CFCF93DF93CDB7DEB760970FB6F894C6
:10025000DEBF0FBECDBF1092BD011092BC01109247
:100260007B0110927A011092C50087E68093C4004A
:1002700088E98093C10086E08093C200809181006C
:100280008C7F8093810080918100846080938100C5
:1002900080916F00816080936F00789480E48093F8
:1002A0007C0087E880937A0081E08093300103E14D
:1002B00011E0CE0101967C01809130018130E1F79F
:1002C000809132018F93809131018F93809134011D
:1002D0008F93809133018F93809136018F9380911A
:1002E00035018F93809138018F93809137018F93DF
:1002F0001F930F93FF92EF920E948F0167010FB639
:10030000F894DEBF0FBECDBFF60181916F01811160
:1003100003C010923001D0CF0E945300F5CFAEE061
:10032000B0E0E5E9F1E00C943E040D891E8986E019
:100330008C831A8309838FEF9FE79E838D83AE01A1
:10034000475E5F4F6F89788DCE0101960E94B201A2
:100350002F813885020F131FF80110822E96E4E0DA
:100360000C945A04ABE0B0E0E8EBF1E00C943004FC
:100370007C013B018A01FC0117821682838181FF87
:10038000C8C1CE0101965C01F7019381F30193FD91
:10039000859193FF81913F01882309F453C18532F0
:1003A00039F493FD859193FF81913F01853229F4C2
:1003B000B70190E00E94A203E7CF912C212C312CB1
:1003C000FFE1F31538F08B3211F190F4803209F12E
:1003D000833229F137FC3CC020ED280F2A3050F53C
:1003E00036FE20C08AE0989E200D1124922E06C071
:1003F0008D3291F0803371F7689430F8F30193FDFA
:10040000859193FF81913F018111DACF21C06894DA
:1004100031F8689432F8F2CF689433F8EFCF6894EB
:1004200034F8ECCFEAE02E9E200D1124222E6894A1
:1004300035F8E4CF8E3229F436FC04C1689436F8DE
:10044000DDCF8C3619F4689437F8D8CF8836B1F2FE
:10045000982F9F7D95549330E0F08336A1F1833738
:10046000C1F1833509F063C02801F2E04F0E511C41
:10047000F801C080D180692D70E036FC02C06FEFBA
:100480007FEFC6010E948C034C01689437F882010B
:100490000AC00C5F1F4FFFE3F98388248394912CDB
:1004A0006501E89437F833FE2DC0522C8114910475
:1004B00071F5552009F468CFB70180E290E00E9401
:1004C000A2035A94F6CFF801808189830E5F1F4FF3
:1004D000E4CF2801F2E04F0E511CF801C080D1801A
:1004E000692D70E036FC02C06FEF7FEFC6010E94FD
:1004F00097034C018201D5CFB70180E290E00E94C2
:10050000A2032A942814190409F0B0F7CECFF601FB
:1005100037FC859137FE81916F01B70190E00E9411
:10052000A20351105A94F1E08F1A9108BFCF84367C
:1005300019F0893609F077C0F80137FE6BC0608189
:100540007181828193810C5F1F4FF32DFF763F2EC7
:1005500097FF09C090958095709561957F4F8F4F5B
:100560009F4F689437F82AE030E0A5010E94D2033B
:10057000C82ECA188C2C432C36FE0CC0E89440F8C8
:10058000C91440F434FE05C032FC03C0F32DFE7ED6
:100590004F2E892C44FE95C0FE01EC0DF11D80818B
:1005A000803309F087C0242D297E422E842D887047
:1005B000582E43FC95C040FE8FC09C2C821418F42A
:1005C0002C0C922C981844FE91C0B70180E390E067
:1005D0000E94A20342FE09C088E790E041FE02C0EB
:1005E00088E590E0B7010E94A203C91408F48AC00C
:1005F000CA94D12C9FEFC91AD90ACA0CDB1CF60188
:1006000082916F01B70190E00E94A203AC14BD0477
:10061000B1F74FCF60817181072E000C880B990BC9
:100620000E5F1F4F92CFD32CE894D4F82AE030E02D
:10063000853739F1232D297FD22E8F3601F148F4E9
:100640008835A9F0F701868197812B96E2E10C9419
:100650004C04803749F08837A9F7D4FE02C068946B
:10066000D2F820E130E00DC06894D4F8F6CF34FE23
:1006700003C0822F8660D82E20E132E002C028E03D
:1006800030E0F801D7FE0FC06081718182819381D3
:100690000C5F1F4FA5010E94D203C82ECA183D2C23
:1006A000E89437F867CF6081718190E080E00E5F59
:1006B0001F4FF0CF42FC02C0839478CF8394839481
:1006C00075CF842D867809F471CFF6CFB70180E21B
:1006D00090E00E94A20383948214C0F3512C73CF44
:1006E000522C5818821408F46ECFF8CF842D8678D7
:1006F00009F47BCF8BE241FE80E247FC8DE2B7013B
:1007000090E071CFB70180E390E00E94A2039A9439
:100710006CCF8FEF9FEF99CFFC0105906150704037
:100720000110D8F7809590958E0F9F1F0895FC01BA
:100730006150704001900110D8F7809590958E0F10
:100740009F1F08950F931F93CF93DF93182F092FA7
:10075000EB018B8181FD09C01FEF0FEF812F902FDF
:10076000DF91CF911F910F91089582FF14C02E81C8
:100770003F818C819D81281739073CF4E881F981FC
:10078000CF0101969983888310838E819F81019682
:100790009F838E83E3CFE885F985812F0995892B87
:1007A000A1F3DACFFA01AA27283051F1203181F1E3
:1007B000E8946F936E7F6E5F7F4F8F4F9F4FAF4F69
:1007C000B1E03ED0B4E03CD0670F781F891F9A1F7C
:1007D000A11D680F791F8A1F911DA11D6A0F711D30
:1007E000811D911DA11D20D009F468943F912AE03C
:1007F000269F11243019305D3193DEF6CF01089524
:10080000462F4770405D4193B3E00FD0C9F7F6CF54
:10081000462F4F70405D4A3318F0495D31FD40521C
:10082000419302D0A9F7EACFB4E0A69597958795B2
:1008300077956795BA95C9F7009761057105089591
:100840009B01AC010A2E069457954795379527953D
:10085000BA95C9F7620F731F841F951FA01D0895D5
:100860002F923F924F925F926F927F928F929F92C0
:10087000AF92BF92CF92DF92EF92FF920F931F93AE
:10088000CF93DF93CDB7DEB7CA1BDB0B0FB6F8945F
:10089000DEBF0FBECDBF09942A88398848885F849F
:1008A0006E847D848C849B84AA84B984C884DF8010
:1008B000EE80FD800C811B81AA81B981CE0FD11DF4
:1008C0000FB6F894DEBF0FBECDBFED010895F894CA
:0208D000FFCF58
:1008D200414420707265766F6420646F6B6F6E6343
:1008E200656E00416E616C6F673A202575202D2080
:1008F2002575202D202575202D2025750A0D000037
:00000001FF
