:100000000C9434000C9446000C9446000C9446006A
:100010000C9446000C9446000C9446000C94460048
:100020000C9446000C946A000C9446000C94460014
:100030000C9446000C9446000C9446000C94460028
:100040000C9446000C9446000C9446000C94460018
:100050000C9446000C9446000C9446000C94460008
:100060000C9446000C94460011241FBECFEFD8E03C
:10007000DEBFCDBF21E0A0E0B1E001C01D92A531FF
:10008000B207E1F70E947B000C94C7030C940000B8
:1000900097B121E030E001C0220F8A95EAF7209560
:1000A000922397B988B1282328B9089590917C00AC
:1000B000907F892B80937C0080917A00806480936C
:1000C0007A0080917A0086FDFCCF80917800909133
:1000D000790008951F920F920FB60F9211248F93FB
:1000E000809114018F5F809314018F910F900FBE48
:1000F0000F901F901895559A569A219A229A259AF0
:1001000081E090E00E94480082E090E00E94480078
:1001100090E080E00E94480083E090E00E94480068
:1001200053985B9A80E480937C0087E880937A0000
:100130008091B10087608093B100809170008160F0
:1001400080937000789484B5836084BD85B58260A7
:1001500085BD809180008B618093800080918100BB
:1001600081608093810084B5806284BD84B58F7E78
:1001700084BD84B5806884BD84B58F7B84BD809147
:100180008000806880938000809180008F7B8093C6
:100190008000809180008062809380008091800048
:1001A0008F7E8093800018BC17BC1092890010923B
:1001B000880010928B0010928A002FEF8FE097E258
:1001C000215080409040E1F700C000002D9A81E06E
:1001D0000E94560090931301809312019093110195
:1001E0008093100182E00E94560090930E0180934C
:1001F0000D0190930C0180930B0180E00E9456004A
:100200009093090180930801909307018093060160
:1002100083E00E9456009093040180930301909321
:100220000201809301011092140180EEE82EFF2458
:10023000F39498E7B92E80911401883C08F48EC09D
:10024000109289001092880017BC4B99FECF2D9810
:10025000D8EC0091100110911101E0901201F09082
:10026000130181E00E945600DC01AE19BF0924E6AB
:1002700030E00E948F0398012E193F09032E000CD5
:10028000440B550B0E947003C22F20930F01009165
:100290000B0110910C01E0900D01F0900E0182E035
:1002A0000E945600DC01AE19BF0924E630E00E942E
:1002B0008F0398012E193F09032E000C440B550B98
:1002C0000E947003F22E20930A0100910601109102
:1002D0000701C0900801D090090180E00E945600FB
:1002E000DC01AC19BD0924E630E00E948F039801BF
:1002F0002C193D09032E000C440B550B0E94700372
:100300002093050183E00E9456006C2F6F19062E82
:10031000000C770B880B990B0E94770220E030E0ED
:1003200040E252E40E94DB020E943F02609300011F
:10033000685368BD809100019D2F981B97BD4B9914
:1003400088CF2FEF85EA9EE0215080409040E1F772
:1003500000C000004B997EC02D987BCFF0928900A1
:10036000E0928800B7BC81E00E9456006C01809347
:100370000F0182E00E9456008C0180930A0180E008
:100380000E945600EC018093050183E00E94560014
:10039000DD2440911001509111014C155D0548F587
:1003A000D0921101C0921001112740910B01509180
:1003B0000C014017510748F510930C0100930B01F5
:1003C000DD2740910601509107014C175D0748F564
:1003D000D0930701C0930601992720910101309124
:1003E00002012817390748F5909302018093010113
:1003F00022CF4091120150911301C416D506A0F6E8
:10040000D0921301C0921201CFCF40910D015091B3
:100410000E0104171507A0F610930E0100930D01AD
:10042000CFCF4091080150910901C417D507A0F61C
:10043000D0930901C0930801CFCF209103013091DF
:1004400004018217930708F0F6CE9093040180937D
:100450000301F1CE2FEF85EA9EE0215080409040CD
:10046000E1F700C000002D9A18BC17BC109289005B
:100470001092880010928B0010928A006BCF0E941D
:1004800046026894B1110C94D50208950E94BA02F4
:1004900088F09F5798F0B92F9927B751B0F0E1F045
:1004A000660F771F881F991F1AF0BA95C9F714C0F5
:1004B000B13091F00E94D402B1E008950C94D402BE
:1004C000672F782F8827B85F39F0B93FCCF386952E
:1004D00077956795B395D9F73EF49095809570958B
:1004E00061957F4F8F4F9F4F0895E89409C097FB08
:1004F0003EF490958095709561957F4F8F4F9F4FFB
:100500009923A9F0F92F96E9BB279395F69587953E
:1005100077956795B795F111F8CFFAF4BB0F11F401
:1005200060FF1BC06F5F7F4F8F4F9F4F16C08823A8
:1005300011F096E911C0772321F09EE8872F762FDE
:1005400005C0662371F096E8862F70E060E02AF01F
:100550009A95660F771F881FDAF7880F969587950B
:1005600097F9089557FD9058440F551F59F05F3F74
:1005700071F04795880F97FB991F61F09F3F79F0C5
:1005800087950895121613061406551FF2CF469547
:10059000F1DF08C0161617061806991FF1CF8695C9
:1005A0007105610508940895E894BB2766277727AD
:1005B000CB0197F908950E94EE020C945F030E940C
:1005C000510338F00E94580320F0952311F00C9449
:1005D00048030C944E0311240C94D5020E94B202DD
:1005E00070F3959FC1F3950F50E0551F629FF00186
:1005F000729FBB27F00DB11D639FAA27F00DB11D9F
:10060000AA1F649F6627B00DA11D661F829F222727
:10061000B00DA11D621F739FB00DA11D621F839FAE
:10062000A00D611D221F749F3327A00D611D231F84
:10063000849F600D211D822F762F6A2F11249F57D2
:1006400050409AF0F1F088234AF0EE0FFF1FBB1FD5
:10065000661F771F881F91505040A9F79E3F510594
:1006600080F00C9448030C94D5025F3FE4F3983E6D
:10067000D4F3869577956795B795F795E7959F5F3E
:10068000C1F7FE2B880F911D9695879597F90895D0
:1006900097F99F6780E870E060E008959FEF80EC35
:1006A000089500240A9416161706180609060895D8
:1006B00000240A9412161306140605060895092E3E
:1006C0000394000C11F4882352F0BB0F40F4BF2BAD
:1006D00011F460FF04C06F5F7F4F8F4F9F4F0895ED
:1006E000052E97FB1EF400940E94870357FD07D048
:1006F0000E94960307FC03D04EF40C948703509598
:100700004095309521953F4F4F4F5F4F08959095FD
:100710008095709561957F4F8F4F9F4F08950E94F0
:10072000B803B7FF0895821B930B0895A1E21A2E18
:10073000AA1BBB1BFD010DC0AA1FBB1FEE1FFF1F85
:10074000A217B307E407F50720F0A21BB30BE40BD5
:10075000F50B661F771F881F991F1A9469F760951C
:100760007095809590959B01AC01BD01CF010895D6
:10077000A29FB001B39FC001A39F700D811D1124E2
:10078000911DB29F700D811D1124911D0895F89443
:02079000FFCF99
:00000001FF
