:100000000C9434000C9448000C9446000C94460068
:100010000C9446000C9446000C9446000C94460048
:100020000C9446000C9446000C9446000C94460038
:100030000C9446000C9446000C9446000C94460028
:100040000C9446000C9446000C9446000C94460018
:100050000C9446000C9446000C9446000C94460008
:100060000C9446000C94460011241FBECFEFD8E03C
:10007000DEBFCDBF21E0A0E0B1E001C01D92AE30F7
:10008000B207E1F70E94E2000C9422010C940000F8
:100090001F920F920FB60F9211242F933F934F93FD
:1000A0005F936F937F938F939F93AF93BF932091B1
:1000B000B20080910801922F981B892F93EC980F22
:1000C000973290F41092090110920A0110920B01DC
:1000D00010920C011092070110920301109204017A
:1000E000109205011092060196EE980F933150F58B
:1000F0004091090150910A0160910B0170910C012E
:10010000440F551F661F771F4093090150930A0142
:1001100060930B0170930C014091090150910A0109
:1001200060910B0170910C01416040930901509363
:100130000A0160930B0170930C01909107019F5F7E
:100140009093070188508131C8F480910901909102
:100150000A01A0910B01B0910C01880F991FAA1FF1
:10016000BB1F8093090190930A01A0930B01B093E8
:100170000C01809107018F5F809307013091070187
:100180003032E9F4E898909102019F5F9093020168
:1001900085B1832785B981E080930D011092B2006B
:1001A000BF91AF919F918F917F916F915F914F918F
:1001B0003F912F910F900FBE0F901F901895209395
:1001C0000801EECF1092B00087E08093B10010924A
:1001D000B20083E08093690081E08DBB7894259A1A
:1001E00080E091E020910D01213019F54091090145
:1001F00050910A0160910B0170910C01409109012D
:1002000050910A0160910B0170910C01409109011C
:1002100050910A0160910B0170910C01409109010C
:1002200050910A0160910B0170910C0110920D0127
:1002300080E0B89B02C08F5FB89A833099F6E09A4D
:080240009DBBD0CFF894FFCF65
:00000001FF
